:020000040800F2
:10000000E80700208D01000895010008970100080D
:10001000990100089B0100089D01000800000000F4
:100020000000000000000000000000009F01000828
:10003000A101000800000000A3010008C108000899
:10004000A7010008A7010008A7010008A7010008F0
:10005000A7010008A7010008A7010008A7010008E0
:10006000A7010008A7010008A7010008A7010008D0
:10007000F5030008A70100080D040008A701000807
:10008000A701000825040008A7010008A70100082F
:10009000A7010008A7010008A7010008A7010008A0
:1000A000410900084509000843090008A7010008A4
:1000B000590900087509000895090008A7010008FA
:1000C000A7010008A7010008A7010008A701000870
:1000D000A7010008510D0008690D0008810D0008F6
:1000E000A7010008A7010008A701000800F002F816
:1000F00000F03CF80AA090E8000C82448344AAF186
:100100000107DA4501D100F031F8AFF2090EBAE883
:100110000F0013F0010F18BFFB1A43F0010318473B
:10012000F825000018260000103A24BF78C878C1CE
:10013000FAD8520724BF30C830C144BF04680C60ED
:10014000704700000023002400250026103A28BF35
:1001500078C1FBD8520728BF30C148BF0B60704739
:100160001FB500F037F81FBD10B510BD00F044F802
:100170001146FFF7F5FF01F0D3FB00F062F803B47E
:10018000FFF7F2FF03BC00F06BF80000094880475E
:1001900009480047FEE7FEE7FEE7FEE7FEE7FEE769
:1001A000FEE7FEE7FEE7FEE704480549054A064B81
:1001B00070470000E1080008ED000008E801002099
:1001C000E8070020E8030020E8030020704770479C
:1001D0007047000070B5064C7C44064D7D4403E03A
:1001E000206820448047241DAC42F9D170BD000036
:1001F0005C25000060250000754600F02BF8AE4637
:1002000005006946534620F00700854618B020B522
:10021000FFF7CAFFBDE820404FF000064FF000078F
:100220004FF000084FF0000B21F00701AC46ACE89E
:10023000C009ACE8C009ACE8C009ACE8C0098D460B
:10024000704710B50446AFF300802046BDE810406B
:10025000FFF795BF004870478801002070470000F5
:1002600001491820ABBEFEE72600020021B18268DA
:1002700042F00102826003E0826822F001028260A3
:10028000704721B1826842F48072826003E0826824
:1002900022F4807282607047014600208A6802F072
:1002A00004020AB1012000E000207047014600204E
:1002B0008A6802F008020AB1012000E000207047BD
:1002C00030B502460020002350680F4C20400D79C5
:1002D0000C6844EA05242043506090680B4C204091
:1002E000D1E902542C434D7944EA450420439060FF
:1002F000D06A20F470000C7C641EE4B2234340EA10
:100300000350D06230BD0000FFFEF0FFFDF7F1FFAB
:10031000F0B504460D4600200021092D11DDE068EE
:10032000A5F10A0606EB4607072606FA07F18843F9
:10033000A5F10A0606EB460603FA06F10843E0605B
:100340000CE0206905EB4507072606FA07F188430C
:1003500005EB450603FA06F108432061072A0FDA88
:10036000606B561E06EB86071F2606FA07F18843C8
:10037000561E06EB860605FA06F10843606322E086
:100380000D2A0FDA206BD61F06EB86071F2606FA0A
:1003900007F18843D61F06EB860605FA06F10843E7
:1003A000206310E0E06AA2F10D0606EB86071F2627
:1003B00006FA07F18843A2F10D0606EB860605FA58
:1003C00006F10843E062F0BD816841F008018160F8
:1003D000704721B1826842F4A002826003E0826823
:1003E00022F4A00282607047816841F004018160BC
:1003F0007047000010B50448006818B10248006852
:1004000001F064F910BD00005C00002010B5044844
:10041000006818B10248006801F058F910BD0000EA
:100420005400002010B50448006818B10248006864
:1004300001F04CF910BD00005800002000F0805180
:1004400011B10349086001E00249486070470000AB
:10045000040402400000024000F0805111B1034941
:10046000086001E00249486070470000040402404F
:100470000000024021B1026842F00102026004E083
:1004800002684FF6FE731A400260704701684FF62B
:10049000FE72114001600021016041608160C16015
:1004A0004B49884208D14A490839496841F00F014F
:1004B000474A083A51608AE045491431884208D1D8
:1004C00043490839496841F0F001414A083A51600E
:1004D0007DE03F492831884208D13D4908394968C3
:1004E00041F470613A4A083A516070E038493C3151
:1004F000884208D136490839496841F47041344A84
:10050000083A516063E032495031884208D130499D
:100510000839496841F470212D4A083A516056E083
:100520002B496431884208D129490839496841F486
:100530007001274A083A516049E0254978318842DC
:1005400008D123490839496841F07061204A083AC6
:1005500051603CE01F49884206D1011F096841F003
:100560000F01021F116032E01A491431884208D18C
:100570001849091F096841F0F001164A121F11605D
:1005800025E014492831884208D11249091F096819
:1005900041F470610F4A121F116018E00D493C319F
:1005A000884208D10B49091F096841F47041094A82
:1005B000121F11600BE007495031884207D10549ED
:1005C000091F096841F47021024A121F1160704727
:1005D000080002400804024001460020002201F009
:1005E000805313B1054B1A6801E0054B1A6802EA03
:1005F00001030BB1012000E000207047000402401D
:100600000000024010B50022026847F6F0739A43DA
:100610000C6A8B6823430C6923434C6923438C6920
:100620002343CC6923434C6A23438C6A23431A43F4
:100630000260CB6843600B6883604B68C36010BD89
:100640002DE9F04102460025002600200023002469
:10065000002791F803C00CF00F0591F803C00CF0CF
:10066000100CBCF1000F03D091F802C04CEA050554
:1006700091F800C0BCF1000F31D0146800202BE0CD
:100680004FF0010C0CFA00F3B1F800C00CEA0306BD
:100690009E4220D183004FF00F0C0CFA03F7BC43AD
:1006A00005FA03FC4CEA040491F803C0BCF1280FDE
:1006B00006D14FF0010C0CFA00FCC2F814C00AE09D
:1006C00091F803C0BCF1480F05D14FF0010C0CFAB2
:1006D00000FCC2F810C0401C0828D1D31460B1F847
:1006E00000C0BCF1FF0F34DD546800202EE000F1A3
:1006F000080C4FF0010808FA0CF3B1F800C00CEA3E
:1007000003069E4221D183004FF00F0C0CFA03F731
:10071000BC4305FA03FC4CEA040491F803C0BCF1A5
:10072000280F05D100F1080C08FA0CF8C2F8148063
:1007300091F803C0BCF1480F07D100F1080C4FF04D
:10074000010808FA0CF8C2F81080401C0828CED323
:100750005460BDE8F081416170470161704700005D
:1007600001460020034A506820F44040084350608E
:10077000704700000010024029B1064A5269024346
:10078000044B5A6104E0034A52698243014B5A61A7
:10079000704700000010024029B1064AD2690243A6
:1007A000044BDA6104E0034AD2698243014BDA6107
:1007B000704700000010024029B1064A92690243C6
:1007C000044B9A6104E0034A92698243014B9A61A7
:1007D000704700000010024010B500F001F810BD95
:1007E0000CB50020019000903348006840F4803040
:1007F0003149086000BF3048006800F400300090C4
:100800000198401C0190009818B90198B0F5A06FAC
:10081000F1D12948006800F4003010B101200090A7
:1008200001E0002000900098012843D1234800688F
:1008300040F01000214908600846006820F00300DD
:1008400008600846006840F0020008601A484068E6
:10085000194948600846406848600846406840F4C6
:10086000806048600846406820F47C104860084674
:10087000406840F4E81048600846006840F0807026
:10088000086000BF0C48006800F000700028F9D034
:100890000948406820F0030007494860084640685E
:1008A00040F00200486000BF0348406800F00C00C0
:1008B0000828F9D10CBD00000010024000200240C1
:1008C00010B5044A044B054903C901F0A7F8034ACF
:1008D00003C210BDCDCCCCCCCCCCFC3F480000201A
:1008E00010B51348006840F001001149086008463F
:1008F0004068104908400E494860084600680E49A3
:1009000008400B4908600846006820F48020086011
:100910000846406820F4FE0048604FF41F008860DD
:10092000FFF75AFF4FF000600449086010BD000057
:10093000001002400000FFF8FFFFF6FE08ED00E0A7
:100940007047704710B50121024800F033F8AFF34B
:10095000008010BD002C014010B50121880700F077
:1009600038F828B10121880700F024F8AFF300809F
:1009700010BD000010B50121054800F02AF828B18B
:100980000121034800F016F8AFF3008010BD00000D
:100990000004004010B50121054800F01AF828B104
:1009A0000121034800F006F8AFF3008010BD0000FD
:1009B00000080040CA430282704721B1028842F019
:1009C0000102028004E002884FF6FE731A400280A2
:1009D000704730B50246002000230024158A05EA3E
:1009E0000103958905EA010413B10CB1012000E06F
:1009F000002030BD70B5002400220023058C4FF686
:100A0000FE7635400584028C8388048B4FF68F7503
:100A10002C40B51E2C400D882C43751E2A400D8994
:100A20002A434D882A43144DA8420BD0134DA842A7
:100A300008D0134DA84205D0124DA84202D0124D45
:100A4000A84213D14FF6F7752A404D892A434FF635
:100A5000FB752A408D882A434FF6FF652B404FF6E1
:100A6000FF552B408D892B43CD892B4383800483F5
:100A7000CD888586028470BD002C01400034014081
:100A80000040014000440140004801400A46002166
:100A9000018B4FF6F7731940114301837047000033
:100AA00070B5002400220023058C4FF6EF76354008
:100AB0000584028C8388048B48F6FF752C404FF622
:100AC000FF452C400D884FF6FF7606EA05252C439E
:100AD0004FF6DF752A400D8906EA05152A434D8831
:100AE00006EA05152A43154DA84202D0144DA84226
:100AF0001DD14FF67F752A404D894FF6FF7606EAE5
:100B000005152A434FF6BF752A408D8806EA05155C
:100B10002A434FF6FF352B404FF2FF752B408D894E
:100B200006EA85052B43CD8906EA85052B4383809C
:100B30000483CD880587028470BD0000002C01402D
:100B4000003401400A460021018B4FF2FF73194027
:100B50004FF6FF7303EA0223194301837047000035
:100B600070B5002400220023058C4FF6FF66354047
:100B70000584028C8388848B4FF68F752C404FF64A
:100B8000FC752C400D882C434FF6FF552A400D89EB
:100B90004FF6FF7606EA05252A434D8806EA052525
:100BA0002A43154DA84202D0144DA8421DD14FF240
:100BB000FF752A404D894FF6FF7606EA05252A4340
:100BC0004FF6FF352A408D8806EA05252A434EF662
:100BD000FF752B404DF6FF752B408D8906EA0515F4
:100BE0002B43CD8906EA05152B4383808483CD886A
:100BF0008587028470BD0000002C01400034014054
:100C00000A460021818B4FF6F77319401143818307
:100C10007047000070B5002200230024058C4EF6BA
:100C2000FF7635400584038C8488828B48F6FF75F7
:100C30002A404FF6FF452A400D884FF6FF7606EA18
:100C400005252A434DF6FF752B400D8906EA05352B
:100C50002B434D8806EA05352B430B4DA84202D0A5
:100C60000A4DA84208D14BF6FF752C408D894FF6EE
:100C7000FF7606EA85152C4384808283CD88A0F810
:100C80004050038470BD0000002C0140003401403E
:100C90000A460021818B4FF2FF7319404FF6FF7314
:100CA00003EA02231943818370470000002202886F
:100CB0001D4B98420ED01D4B98420BD0B0F1804F87
:100CC00008D01B4B984205D01A4B984202D01A4BC1
:100CD000984204D14FF68F731A404B881A43174B32
:100CE000984207D0164B984204D04FF6FF431A4063
:100CF000CB881A4302808B8883850B8803850A4B37
:100D000098420BD0094B984208D00E4B984205D020
:100D10000D4B984202D00D4B984201D10B7A0386BD
:100D20000123838270470000002C01400034014001
:100D30000004004000080040000C0040001000408B
:100D400000140040004001400044014000480140C0
:100D500010B50448006818B10248006800F04AFC69
:100D600010BD00005400002010B50448006818B100
:100D70000248006800F03EFC10BD00005800002052
:100D800010B50448006818B10248006800F032FC51
:100D900010BD00005C00002010B50022002340F6CA
:100DA0006A14A14200D100BF0A1201249440A3B2E8
:100DB000DC43048010BD70B50246002400230025EA
:100DC000002040F66A16B14200D100BFC1F34215BF
:100DD00001F01F03012606FA03F3012D02D19689C3
:100DE000334006E0022D02D1168A334001E0968A94
:100DF00033400C12012606FA04F41688344013B16D
:100E00000CB1012000E0002070BDF0B503460024C5
:100E100000260025002040F66A17B94200D100BF25
:100E20001846C1F3421401F01F06012707FA06F520
:100E3000012C01D10C3004E0022C01D1103000E073
:100E400014301AB107682F43076002E00768AF4308
:100E50000760F0BD01468888C0F308007047C1F301
:100E600008028280704700002DE9F0474FF0E02132
:100E7000886900F0DFFF06460022174B00F082FE73
:100E800004460D46154A164B164903C900F0C6FD27
:100E9000804622462B4601F0A7F8134A03C21348A6
:100EA00011490CC803C901F09FF80446104A114BC0
:100EB00001F064F807D2094A094B0B4903C901F054
:100EC00093F8094A03C2084903C9084A03C20649FC
:100ED00003C9BDE8F0870000882A6141CDCCCCCCA5
:100EE000CCCCFC3F4800002038000020400000200F
:100EF00062105839B4C8FC3F2DE9F14FFFF7B4FF39
:100F000082468B4600BF009800F094FF0646002200
:100F1000094B00F037FE04460D46FFF7A5FF0646D5
:100F200052465B4601F060F8804622462B4600F0B0
:100F300095FFE8D3BDE8F88F00408F404FF0E021E7
:100F4000096921F004014FF0E02211610349516168
:100F50001146096941F00301116170474031F70002
:100F600030B591B004460D4601210846FFF704FC58
:100F700001214802FFF720FC01210846FFF71CFC75
:100F80004FF40040FFF7ECFB3848FFF77FFA384892
:100F9000019002940020039094F824000490002013
:100FA0000590802006904000079080000890202047
:100FB000099000020A9000200B9001A92B48FFF72E
:100FC00021FB01212948FFF755FA00200C90012050
:100FD0008DF834008DF835004FF460200E9000201D
:100FE0000F9094F824008DF840000CA920484C384C
:100FF000FFF766F90AE094F82430206AC15C581CB7
:10100000C2B207231A484C38FFF782F914F8241F9C
:101010002078401E04F824090029ECD1012114484D
:101020004C38FFF72EF9012111484C38FFF71EF913
:101030000F484C38FFF7C8F900BF0D484C38FFF790
:1010400035F90028F9D10A484C38FFF7CDF900BF2F
:1010500007484C38FFF720F90028F9D1012104484E
:101060004C38FFF7B6F911B030BD0000080002405F
:101070004C2401402DE9FF4F85B004468A46934633
:101080000027002502AEA846A94686F800A086F8EB
:1010900001B00898B0701298F070139830711498DD
:1010A00070711598B0711698F07117983072189881
:1010B000707242E0F01910F8010C217D884204DDC5
:1010C000F01910F8010C002837DBF01910F8010CAA
:1010D000216A4855206A405D082812DA2D480068C8
:1010E000A16941F82500206A405D2B4931F81000C4
:1010F000E16921F81500E06930F8150040EA0808B8
:1011000019E0206A405D082803D0206A405D092864
:1011100011D120484068A16941F82500206A405D4E
:101120001D4931F81000E16921F81500E06930F837
:10113000150040EA0909681CC5B23846791CCFB2CF
:101140000A28B7D184F8245000270025B8F1000FF1
:101150000CD001210420FFF72FFBADF80480002004
:101160008DF8070001A90D48FFF76AFAB9F1000FE1
:101170000CD001210820FFF71FFBADF804900020E0
:101180008DF8070001A90648FFF75AFA09B0BDE833
:10119000F08F0000000000200C000020000801403B
:1011A000000C01402DE9FF4F87B004460D4616465E
:1011B000DDF868B015AF97E880070A20207504F1C4
:1011C0002800A0612830E061143020621998CDE930
:1011D000050BCDE9039A14988DE881013246294622
:1011E00020460A9BFFF746FF2046216AFFF7B8FE1C
:1011F00020460BB0BDE8F08F2DE9F84780460C463D
:101200000025104890FBF4F690FBF4F104FB110765
:101210004FF000094FF0000A3FB953464A463146A5
:101220004046009500F024F90AE0B7F5004F00D9D8
:10123000761C53464A4631464046009500F018F960
:10124000BDE8F88700A24A042DE9F05F04460D4688
:1012500016461F46DDE90CABDDE90A892560012150
:101260000420FFF7A9FA01210820FFF7A5FA0121C0
:101270000846FFF7A1FAB5F1804F1CD101210846BD
:10128000FFF78AFA06F00100022101EA470108434C
:10129000042101EA88010843082101EAC901084341
:1012A0006081032121731821617304F10A014F4801
:1012B000FFF7C6F948E04E48854225D101210220BA
:1012C000FFF76AFA402000EA8610802101EAC71180
:1012D00008436081032121731821617304F10A011D
:1012E0004248FFF7ADF908F00100022101EA490187
:1012F00008436081032121731821617304F10A01FD
:101300003C48FFF79DF91FE03B4885421CD1012175
:101310000420FFF741FA402000EA8610802101EA0C
:10132000C7110843A91501EA08210843691501EA14
:10133000492108436081032121731821617304F15D
:101340000A012C48FFF77CF9E088401E6082A088E3
:10135000401EE0810021A182218204F10E01284675
:10136000FFF7A4FC602020830121618300212184F8
:10137000E08800EBD0714910E18304F118012846A0
:10138000FFF738FB08212846FFF780FBE08800EBD9
:10139000D0714910E18304F118012846FFF780FB62
:1013A00008212846FFF7CEFBE08800EBD0714910FA
:1013B000E18304F118012846FFF7D2FB08212846F3
:1013C000FFF71EFCE08800EBD0714910E18304F1C7
:1013D00018012846FFF71EFC08212846FFF758FC95
:1013E00001212846FFF7E9FABDE8F09F0008014017
:1013F00000040040000C0140000800402DE9F05FAF
:1014000004460F4616469846B8F1000F04D0314600
:10141000164801F0F7F80646E08801F013F8824616
:101420001249304600F02CFF8346514601F01EF869
:10143000814600F0E7FF85B2012F06D0022F07D0CA
:10144000032F08D0042F0DD108E02068858609E01D
:101450002068058706E02068858703E02068A0F8FB
:10146000405000BF00BFBDE8F09F00000000C84230
:10147000F0B50446059D012012E0B1FBF0F600FB3B
:1014800016165EB9B1FBF0F64FF6FF77BE4205D2F5
:10149000A080B1FBF0F6E680012504E0461CB0B266
:1014A000B0F5966FE9DD00BFCDB9012013E0B1FBC7
:1014B000F0F2B1FBF0F600FB16134FF6FF76B242E6
:1014C00007D247F6F676B34203D2A080E280012528
:1014D00004E0461CB0B2B0F5966FE8DD00BFF0BD89
:1014E00010B504461F496068884204D101210420D8
:1014F000FFF762F934E01C496068884204D1012199
:101500000820FFF759F92BE018496068884204D198
:1015100001211020FFF750F922E015496068884248
:1015200004D101212020FFF747F919E01149606833
:10153000884204D101214020FFF73EF910E00E4916
:101540006068884204D101218020FFF735F907E067
:101550000A496068884203D101218015FFF72CF900
:1015600010BD000000080140000C014000100140C7
:101570000014014000180140001C014000200140FF
:1015800070B504460D46002D07DD2289074B33F860
:1015900012106068FFF7E1F806E02289034B33F888
:1015A00012106068FFF7D7F870BD0000EE26000843
:1015B0002DE9F84304460F4615461E46DDF8208007
:1015C000267084F80180676025812046FFF788FF38
:1015D000074830F81500ADF800008DF802808DF84E
:1015E000036069466068FFF72BF82046BDE8F88382
:1015F000EE26000838B5044640F22551D4F8200202
:10160000FFF7D9FB90B1D4F82002FFF723FCC0B25A
:101610006946009004F5827000F0AEF940F2255161
:10162000D4F82002FFF7B8FB002500BF40F2277175
:10163000D4F82002FFF7BFFBE8B1204600F0E0F944
:10164000002809DD1F49204600F07CF91D49097872
:10165000D4F82002FFF703FC204600F0D1F948B986
:10166000002240F22771D4F82002FFF7CEFB0020C1
:1016700084F82C02012540F22661D4F82002FFF7FD
:101680009AFBE8B1204600F0BBF9002809DD0E49BD
:10169000204600F057F90C490978D4F82002FFF7EA
:1016A000DEFB204600F0ACF948B9002240F226618A
:1016B000D4F82002FFF7A9FB002084F82C020125B2
:1016C000284638BD510000205200002070B5044665
:1016D000D4F82402FEF780FF01283AD1D4F828027A
:1016E000FEF7BAFED4F82402FEF7A8FE0021D4F8D3
:1016F0001C02FEF7BFFE204600F082F9002825DD1F
:10170000204600F07DF9142810DC204600F078F91E
:10171000D4F81C124860204600F072F905462A46AB
:1017200004F50271204600F049F909E01420D4F8CC
:101730001C124860142204F50271204600F03EF9A4
:101740000121D4F81C02FEF795FE02E0002084F887
:101750002C0270BD10B5016002710023836000246B
:10176000C460046144618461C4610462446284624F
:10177000C46210BD10B504466088401C608060885B
:10178000B4F90410884233DB00206080194A1A4BF8
:101790001B78D25CC2F3C001A068FFF7F1FE1548C8
:1017A000154A1278805CC0F3800104F10C00FFF749
:1017B000E7FE1048104A1278805CC0F3400104F143
:1017C0001800FFF7DDFE0B480B4A1278805C00F032
:1017D000010104F12400FFF7D3FE07480078401C04
:1017E0000549087008460078082801DB00200870C9
:1017F00010BD00000E2700082C000020F0B5059C4D
:10180000002505704580816092E8E000C0E904672A
:10181000C56093E8E000C0E90767856194E8E000EF
:10182000C0E90A67456200258580F0BD00B5024821
:10183000FFF784FB00BD0000300000202DE9F04FD1
:1018400087B02E4C4FF0804601274FF00008C1466C
:10185000C2464FF4FA75C3460020A080E0802946B6
:101860002046FFF7C9FC258143463A4631462046CB
:10187000CDE9025BCDE9009AFFF7E6FC00BFFF204F
:101880000390049005900690009001900346024654
:10189000012102901A48FFF785FC012218491948D6
:1018A000FFF758FF0320102306221749009017481E
:1018B000FFF77EFE032010230722134900901448EF
:1018C000FFF776FE0320102308220F4900901148ED
:1018D000FFF76EFE0320102309220B4900900E48EB
:1018E000FFF766FE0C480B4B094A084900900B486D
:1018F000FFF784FF07B0BDE8F08F00006000002014
:1019000088000020F8000020000C01402801002081
:1019100034010020400100204C010020580100202B
:101920000123002219460548FFF768FD05E0044839
:10193000FFF720FF0320FFF7DFFAF8E76000002041
:10194000580100200246B2F80001B2F80231984274
:1019500001D100207047B2F80031581CC31700EBCA
:1019600013631B12A0EB0323A2F80031B2F80001AD
:10197000105C08700120EDE710B50246B2F80231A4
:10198000581CC31700EB13631B12A0EB0323B2F820
:101990000041A34201D1002010BDB2F80231581C11
:1019A000C31700EB13631B12A0EB0323A2F8023151
:1019B0000878B2F80231D0540120EDE770B5044642
:1019C0000E461546204600F01BF8A84201DA00201A
:1019D00070BD002010E0B4F80021511CCA1701EBC3
:1019E00012621212A1EB0222A4F80021B4F8001135
:1019F000615C3154411C88B2A842ECDB0120E7E76E
:101A00000146B1F80201B1F80031C21AD01702EB59
:101A100010600012A2EB002080B2704710B591EA6E
:101A2000030F48BF83F0004300F1E682841A71EB94
:101A3000030C05D2121943EB0C03001B61EB0C01E4
:101A4000DFF824E14FEA1154A4EB135C1EEA430FC4
:101A500018BF9EEA445F73D023EA0E03DCF1200E28
:101A600021EA045143F4801332D322FA0CFE10EB26
:101A70000E0023FA0CFE41EB0E01CCF1200E03FA0E
:101A80000EFE10EB0E0051F10001B1F5801FCCF1FC
:101A9000200E32D201EB045112FA0EF2BDE81040D2
:101AA00058BF7047401C38BF5FEA420218BF7047FA
:101AB000002814BF20F0010041F100014FEA41036A
:101AC00013F5001F38BF7047A1F1C04100F050BAB4
:101AD000012A43EB0302ACF1200CDCF11F0E32BFF4
:101AE0004FF0000E23FA0CF310EB030041EB04510E
:101AF000B4EB115FD0D0A1EB045101F5801149087E
:101B00005FEA300001EB04510ED350F1000038BF02
:101B100012FA0EFE08D1BDE81040C9E7401C38BFDC
:101B20005FEA4202CAD1C3E7BDE810404FEA410371
:101B300013F5001F38BF7047A1F1C04100F018BA7B
:101B40009EEA445F08D011EA5E0FBDE8104004BF72
:101B500001F0004100207047BDE8104070B500F072
:101B6000B9F900BF64FBBE3E0000E0FF491058BF5A
:101B7000C1F140415B1058BFC3F140438B42EFF3CA
:101B8000008070472DE9C04130B4DFF8A0C23CEAC4
:101B9000111418BF3CEA131400F0EC8081EA03052D
:101BA0001CEA111444EAD57418BF1CEA131500F09E
:101BB000C780A4EB05044FF0004545EAC12145EA82
:101BC000C32341EA505143EA525304F17F749942CE
:101BD00004F500344FEAC0204FEAC22208BF904209
:101BE00000F09C804FEA13650FF24016765D4FEAD5
:101BF000134506FB05F7C7F1807706FB07F74FEAA9
:101C0000D737A7FB03687642C8F58038A7FB06CE16
:101C100038BFA8F1010807FB08E64FF0000EA6FB4D
:101C2000028CE6FB03CEDCF1000CCEF1004E38BF97
:101C3000AEF1010EA6FB0C584FF000074FF0000567
:101C4000E6FB0E87A1FB08C6A0FB07CE16EB0E062F
:101C500045F10005E1FB076515F1E04E7EBFA4F5F7
:101C600080345FEA46066D4116F1800745F10005B4
:101C70004FEA17274FEA066647EA0567A6F1DE46F0
:101C8000B6F1805F4FEA15251FD9384624F0010CC4
:101C900005EBC471BCF1FE6F01EB0C1102D8F0BC76
:101CA000BDE8008124425CBF01F5801E9EEAC47F2E
:101CB00002D4F0BCBDE80081244238D4F0BCA1F1CC
:101CC000C041BDE8004100F053B94FEAD22242EAD8
:101CD00043524FEAD323A7FB02864FEAD02040EAC3
:101CE000415007FB03661EEA0E0F4FEAD12105FBA8
:101CF000026658BFA6EB0056B6EB00564FEA520EEE
:101D00004EEAC37E18EB0E0E56EB530EBDD518EB04
:101D100002085E417F1C55F10005B6E74FF48015BF
:101D20004FF000074FF000064FF00008ADE7F0BCA1
:101D30004FF0000001F1C04101F00041BDE8008119
:101D400011EA0C1F0CEA131500D00CE013EA0C1F6B
:101D500000F025804FF00000F0BC81EA030101F0A3
:101D60000041BDE80081F0BCBDE8004181EA03010B
:101D700000F0FEB8F0BCBDE8004170B500F0AAF874
:101D8000097EFC3E00F007B881EA03014FF0000035
:101D900001F00041704781EA030100F0E9B8F0BCAE
:101DA000BDE800414FF0000021497047FFFDFBF9FD
:101DB000F7F5F4F2F0EEEDEBE9E8E6E4E3E1E0DE7E
:101DC000DDDBDAD8D7D5D4D3D1D0CFCDCCCBCAC8F0
:101DD000C7C6C5C4C2C1C0BFBEBDBCBBBAB9B8B717
:101DE000B6B5B4B3B2B1B0AFAEADACABAAA9A8A80A
:101DF000A7A6A5A4A3A3A2A1A09F9F9E9D9C9C9BD8
:101E00009A99999897979695959493939291919082
:101E10008F8F8E8E8D8C8C8B8B8A89898888878713
:101E20008685858484838382828181800000FF0788
:101E30000000F87FB0FA80F310FA03F10AD0C3F182
:101E40001D0303F580634FEA41504FEA035202EB52
:101E5000D12170474FF000007047000051EA030C99
:101E600017D41CF5801F58BFBCF5801F00F10680F9
:101E7000994218BF704708BF9042704707D711F5C5
:101E8000801F58BF13F5801F19D4994270478942AB
:101E900070471CF5801F08D5BCF5801FF7D58B4215
:101EA00018BF704708BF824270474FF4001C1CEBFC
:101EB000410F38BF1CEB430F01D28B42704770B506
:101EC00000F008F8922449004FF000514FF0805381
:101ED000FFF74CBE0EF1020E2EF0030E5EF8046BFF
:101EE000364205D4012A43EB030515F5001F12D82D
:101EF000012841EB010C1CF5001F0CD80ED14FEA54
:101F0000D17C15F5001F0CEB4C0C0CF1020C08BF3A
:101F10004CEBD37C04E04FF0080C01E04FEAD37C9B
:101F20000CEB4C0526FA05F606F00706B6F1040C94
:101F300006D20EEB860CBDE870404CF0010C6047F9
:101F4000DFE80CF0090B02024FF000414FF00000F7
:101F5000A1F5002170BD19461046012851EB01047E
:101F600018BFD4F5001484BF002001F0004170BDFB
:101F70000808A0F500114FEA3101704753EA010C3F
:101F800017D41CF5801F58BFBCF5801F00F10680D8
:101F90008B4218BF704708BF8242704707D713F5BE
:101FA000801F58BF11F5801F19D48B4270479B4288
:101FB00070471CF5801F08D5BCF5801FF7D59942E6
:101FC00018BF704708BF904270474FF4001C1CEBCD
:101FD000430F38BF1CEB410F01D2994270470FB439
:101FE0000CBC03BCFFF76BBF10B591EA030F48BFF1
:101FF00083F000433FF51AAD841A71EB030C07D24E
:1020000012198CF0004C43EB0C03001B61EB0C012C
:10201000DFF8A4E14FEA1154A4EB135C1EEA430F6E
:1020200018BF9EEA445F00F0B08023EA6E0352427C
:1020300021EA0451C3EB6E0338BF5B1EDCF1200EB6
:1020400025D322FA0CFE10EB0E0043FA0CFE41EBF6
:102050000E01CCF1200E03FA0EFE10EB0E0051F132
:102060000001CCF1200E29D412FA0EF201EB04513A
:10207000BDE8104058BF7047401C1CBFB2F1004F74
:10208000704700280CBF491C20F00100704712EB7C
:10209000020E43EB030218BF4FF0010E4EEA42025C
:1020A000ACF1200CDCF11E0E54D943FA0CFE10EBFF
:1020B0000E0051F1FF31CCF11E0ED5D50EF1010EFF
:1020C00012FA0EFE404141EB010101EB445C5FEA74
:1020D0005C5C10D910EBDE7001EB045138BFBEF12F
:1020E000004FBDE8104018BF704700280CBF491CC6
:1020F00020F00100704730D24FEAD42C11F50011C6
:1021000024F400641BD0B1FA81F20B3AA41AA41E85
:10211000D2F12003914030FA03F31943904001EBD0
:10212000CC71002C01EB0451BDE81040A8BF7047F2
:1021300001F1C0414FF0000001F000417047B0FADA
:1021400080F310FA03F100D110BDE41A173C4805E2
:10215000C90AE4E701EB045110BD491001EB045139
:10216000BDE810404FEA300002E04FF00001704738
:102170004A0008BF0042F8D0B2F5001F28BF7047E0
:1021800001F000414FF0000070479EEA445F07D025
:1021900011EA5E0FBDE8104004BF00210020704727
:1021A000BDE8104070B5FFF795FE00BF40DFF63E7A
:1021B00083F00041104670470000E0FF90EA010FF5
:1021C00048BF81F0004100F12482421A3CBF801ACE
:1021D00089184FEAD0524FF07F4C1CEA410FA2EB16
:1021E000D15318BF9CEA026F00F03B804FF0004CC7
:1021F0004CEA00204CEA012121FA03FC10EB0C0C04
:102200001ED202F1FF325FEA1C2040EBC25038BF01
:1022100070471CF07F0F4FEA400C18BFBCF17F4F96
:1022200038BF7047C3F12003994008BF20F0010078
:10223000BCF17F4F38BF7047A0F1C04000F0DDB95E
:102240004FEA3C00000A40EBC25028BF1CF0FF0FD1
:102250004FEA400CE6D018BFBCF17F4F38BF704743
:10226000EAE79CEA026F05D010EA5C0F08BF00F0B5
:102270000040704710B500F07AF900BF64FBBE3E25
:102280004FF47F0C1CEAD0121EBF1CEAD11392EA55
:102290000C0F93EA0C0F00F0858090EA010F48BF05
:1022A00042F4807240F4000C41F400002CF07F41B5
:1022B00020F07F4000B58142A2EB03020FF2081C20
:1022C000ACEB504EC0F100009EF800E04FEA4E0E1D
:1022D00000FB0EFC38BF49004FEA2C1C02F5FA0245
:1022E0000CFB0EF34FEACE1E4FEA112C4FEAC12130
:1022F0000EEB635E42EB22420EFB0CFC4FEA1C53DA
:1023000000FB03114FEA112C4FEA01310EFB0CFCCC
:102310004FEADC4C00FB0C11C14228BF09184CEB02
:1023200003335DF804EB10EB410143EBC250B2F50F
:102330007C0F38BF704729D512F0F00F1CBF00F199
:10234000C04000F00040704700818283848586870A
:1023500088898B8C8D8E8F919293959697999A9C64
:102360009D9FA0A2A3A5A7A8AAACAEB0B2B3B5B7D3
:10237000B9BCBEC0C2C5C7C9CCCED1D4D7D9DCDFA9
:10238000E2E6E9ECF0F3F7FAFE0000004FEA400C59
:102390000CF1807CBCF17E4F28BF7047B0F1C0408B
:1023A00000F02BB990EA010F0CEAD11348BF42F4B8
:1023B0008072624538BF634507D213F47F0F16D091
:1023C00080EA010000F00040704710B500F0CFF83F
:1023D000097EFC3E00F005B880EA010000F00040F4
:1023E000704780EA010000F0004000F006B912F4E6
:1023F0007F0F04BF0248704780EA010000F0FDB87B
:102400000000C07FC10DD1F19E0206DB4FEA002320
:1024100043F0004323FA02F07047004207D54FEA29
:102420004001B1F1FE4F02D24FF00000704710B5ED
:1024300000F09DF849922480002070476FEA200048
:1024400070470000B0FA80F310FA03F2C3F19D0365
:102450000AD0D90501EB1220530638BF704700F1AE
:10246000010008BF20F00100704700004FF47F0C0E
:102470001CEAD0121EBF1CEAD11392EA0C0F93EA99
:102480000C0F00F0478090EA010F48BF42F48072C1
:102490004FF0004C4CEA00204CEA012102EB030211
:1024A000A0FB0113A2F50002002918BF43F00103AD
:1024B0005B0028BF4FEA330342EB22425FEA132C52
:1024C0004CEBC2502EBFBCEB436FB2F57C0F704794
:1024D0004FEA036CBCF1004F08BF20F00100B2F5D9
:1024E0007C0F38BF70470BD582F0FF0212F5803F9A
:1024F000C8BF704700F1C040D8BF00F0004070472F
:1025000000F5000C5FEA4C0C48BF7047B0F1C040CA
:1025100000F073B890EA010F0CEAD11348BF42F4FF
:102520008072624538BF634504D280EA010000F042
:102530000040704710B500F01AF800BF8900013E56
:1025400000F007B800F009B85FEA410C5FEA1C6CC4
:1025500008D080EA010000F050B85FEA400C5FEA62
:102560001C6CF6D14FF00040A0F5800070470EF1D2
:10257000020E2EF0030E5EF8044B244204D44FEA00
:102580004102B2F17F4F11D84FEA4003B3F17F4FC0
:102590000CD80ED14FEAD07CB2F17F4F0CEB4C0C33
:1025A0000CF1020C08BF4CEBD17C04E04FF0080C9E
:1025B00001E04FEAD17C0CEB4C0324FA03F404F065
:1025C0000704B4F1040C06D20EEB840CBDE81040F5
:1025D0004CF0010C6047DFE80CF0070802024FF0F6
:1025E0000040A0F5800010BD0846420018BFD2F19F
:1025F000807288BF00F0004010BDFF2141EAD0503A
:10260000C005704790EA010F48BF81F000413FF5D7
:10261000DCAD421A04D882F00042A0EB0200114463
:102620004FEAD0524FF07F4C1CEA410FA2EBD1533E
:1026300018BF9CEA026F4AD04FF0004C4CEA0020D1
:102640004CEA012121FA03FCB0EB0C0C0FD412F080
:10265000FE0F36D05FEA4C001DD5001240EBC25091
:1026600038BF70471CF03F0F18BF70470BE0A2F156
:1026700001025FEA1C2040EBC25038BF70471CF0DB
:102680007F0F18BF7047C3F12003994014BF401E4D
:1026900020F00100704780084FEA122308BF7047FE
:1026A000B0FA80FCA2EB0C02CCF1280C60FA0CF022
:1026B00093EA122F04BF00EBC25070474FEAC37079
:1026C0007047130A5FEADC1008BF7047F6E79CEA20
:1026D000026F04D010EA5C0F08BF0020704710B5ED
:1026E000FFF745FF40DFF63E81F0004070470100F4
:1026F00002000400080010002000400080000001DB
:102700000002000400080010002000400080080CB7
:102710000406020301090000402700080000002011
:102720006000000028010008A027000860000020C9
:102730008807000044010008F5F0FFFF01F1FFFFEA
:1027400000080140000C014000100140010002009F
:10275000040008001000200040008000010002007A
:10276000010002000400080010002000000000002A
:102770000000000000000000000000000000000059
:102780000000000000000000000000000000000049
:102790000000000000000000000000000000000039
:04000005080000ED02
:00000001FF
